{
  "contractName": "WikiBea",
  "abi": [
    {
      "constant": true,
      "inputs": [],
      "name": "artigosCount",
      "outputs": [
        {
          "name": "",
          "type": "uint256"
        }
      ],
      "payable": false,
      "stateMutability": "view",
      "type": "function"
    },
    {
      "constant": true,
      "inputs": [],
      "name": "owner",
      "outputs": [
        {
          "name": "",
          "type": "address"
        }
      ],
      "payable": false,
      "stateMutability": "view",
      "type": "function"
    },
    {
      "constant": true,
      "inputs": [
        {
          "name": "",
          "type": "uint256"
        }
      ],
      "name": "artigos",
      "outputs": [
        {
          "name": "id",
          "type": "uint256"
        },
        {
          "name": "titulo",
          "type": "string"
        },
        {
          "name": "corpo",
          "type": "string"
        },
        {
          "name": "autor",
          "type": "address"
        },
        {
          "name": "versao",
          "type": "uint256"
        }
      ],
      "payable": false,
      "stateMutability": "view",
      "type": "function"
    },
    {
      "inputs": [],
      "payable": false,
      "stateMutability": "nonpayable",
      "type": "constructor"
    },
    {
      "constant": false,
      "inputs": [
        {
          "name": "_titulo",
          "type": "string"
        },
        {
          "name": "_corpo",
          "type": "string"
        }
      ],
      "name": "adicionaArtigo",
      "outputs": [],
      "payable": false,
      "stateMutability": "nonpayable",
      "type": "function"
    },
    {
      "constant": false,
      "inputs": [
        {
          "name": "_id",
          "type": "uint256"
        },
        {
          "name": "_titulo",
          "type": "string"
        },
        {
          "name": "_corpo",
          "type": "string"
        }
      ],
      "name": "alterarArtigo",
      "outputs": [],
      "payable": false,
      "stateMutability": "nonpayable",
      "type": "function"
    },
    {
      "constant": true,
      "inputs": [
        {
          "name": "id",
          "type": "uint256"
        }
      ],
      "name": "getArtigo",
      "outputs": [
        {
          "name": "",
          "type": "uint256"
        },
        {
          "name": "",
          "type": "string"
        }
      ],
      "payable": false,
      "stateMutability": "view",
      "type": "function"
    }
  ],
  "bytecode": "0x608060405234801561001057600080fd5b50336000806101000a81548173ffffffffffffffffffffffffffffffffffffffff021916908373ffffffffffffffffffffffffffffffffffffffff1602179055506100cb6040518060400160405280600c81526020017f746974756c6f20746573746500000000000000000000000000000000000000008152506040518060400160405280600b81526020017f636f72706f2074657374650000000000000000000000000000000000000000008152506100d060201b60201c565b610278565b6002600081548092919060010191905055506040518060a0016040528060025481526020018381526020018281526020013373ffffffffffffffffffffffffffffffffffffffff168152602001600081525060016000600254815260200190815260200160002060008201518160000155602082015181600101908051906020019061015d9291906101d3565b50604082015181600201908051906020019061017a9291906101d3565b5060608201518160030160006101000a81548173ffffffffffffffffffffffffffffffffffffffff021916908373ffffffffffffffffffffffffffffffffffffffff160217905550608082015181600401559050505050565b828054600181600116156101000203166002900490600052602060002090601f016020900481019282601f1061021457805160ff1916838001178555610242565b82800160010185558215610242579182015b82811115610241578251825591602001919060010190610226565b5b50905061024f9190610253565b5090565b61027591905b80821115610271576000816000905550600101610259565b5090565b90565b610b49806102876000396000f3fe608060405234801561001057600080fd5b50600436106100625760003560e01c806340c728b3146100675780635e4c546f146100855780637c13f6f4146101e15780638da5cb5b14610333578063a80d23d51461037d578063f038f9fa1461042b575b600080fd5b61006f61057f565b6040518082815260200191505060405180910390f35b6101df6004803603606081101561009b57600080fd5b8101908080359060200190929190803590602001906401000000008111156100c257600080fd5b8201836020820111156100d457600080fd5b803590602001918460018302840111640100000000831117156100f657600080fd5b91908080601f016020809104026020016040519081016040528093929190818152602001838380828437600081840152601f19601f8201169050808301925050505050505091929192908035906020019064010000000081111561015957600080fd5b82018360208201111561016b57600080fd5b8035906020019184600183028401116401000000008311171561018d57600080fd5b91908080601f016020809104026020016040519081016040528093929190818152602001838380828437600081840152601f19601f820116905080830192505050505050509192919290505050610585565b005b610331600480360360408110156101f757600080fd5b810190808035906020019064010000000081111561021457600080fd5b82018360208201111561022657600080fd5b8035906020019184600183028401116401000000008311171561024857600080fd5b91908080601f016020809104026020016040519081016040528093929190818152602001838380828437600081840152601f19601f820116905080830192505050505050509192919290803590602001906401000000008111156102ab57600080fd5b8201836020820111156102bd57600080fd5b803590602001918460018302840111640100000000831117156102df57600080fd5b91908080601f016020809104026020016040519081016040528093929190818152602001838380828437600081840152601f19601f820116905080830192505050505050509192919290505050610674565b005b61033b610777565b604051808273ffffffffffffffffffffffffffffffffffffffff1673ffffffffffffffffffffffffffffffffffffffff16815260200191505060405180910390f35b6103a96004803603602081101561039357600080fd5b810190808035906020019092919050505061079c565b6040518083815260200180602001828103825283818151815260200191508051906020019080838360005b838110156103ef5780820151818401526020810190506103d4565b50505050905090810190601f16801561041c5780820380516001836020036101000a031916815260200191505b50935050505060405180910390f35b6104576004803603602081101561044157600080fd5b8101908080359060200190929190505050610872565b6040518086815260200180602001806020018573ffffffffffffffffffffffffffffffffffffffff1673ffffffffffffffffffffffffffffffffffffffff168152602001848152602001838103835287818151815260200191508051906020019080838360005b838110156104d95780820151818401526020810190506104be565b50505050905090810190601f1680156105065780820380516001836020036101000a031916815260200191505b50838103825286818151815260200191508051906020019080838360005b8381101561053f578082015181840152602081019050610524565b50505050905090810190601f16801561056c5780820380516001836020036101000a031916815260200191505b5097505050505050505060405180910390f35b60025481565b3373ffffffffffffffffffffffffffffffffffffffff166001600085815260200190815260200160002060030160009054906101000a900473ffffffffffffffffffffffffffffffffffffffff1673ffffffffffffffffffffffffffffffffffffffff16146105f357600080fd5b8160016000858152602001908152602001600020600101908051906020019061061d9291906109f8565b50806001600085815260200190815260200160002060020190805190602001906106489291906109f8565b506001600084815260200190815260200160002060040160008154809291906001019190505550505050565b6002600081548092919060010191905055506040518060a0016040528060025481526020018381526020018281526020013373ffffffffffffffffffffffffffffffffffffffff1681526020016000815250600160006002548152602001908152602001600020600082015181600001556020820151816001019080519060200190610701929190610a78565b50604082015181600201908051906020019061071e929190610a78565b5060608201518160030160006101000a81548173ffffffffffffffffffffffffffffffffffffffff021916908373ffffffffffffffffffffffffffffffffffffffff160217905550608082015181600401559050505050565b6000809054906101000a900473ffffffffffffffffffffffffffffffffffffffff1681565b60006060600160008481526020019081526020016000206000015460016000858152602001908152602001600020600101808054600181600116156101000203166002900480601f0160208091040260200160405190810160405280929190818152602001828054600181600116156101000203166002900480156108625780601f1061083757610100808354040283529160200191610862565b820191906000526020600020905b81548152906001019060200180831161084557829003601f168201915b5050505050905091509150915091565b6001602052806000526040600020600091509050806000015490806001018054600181600116156101000203166002900480601f0160208091040260200160405190810160405280929190818152602001828054600181600116156101000203166002900480156109245780601f106108f957610100808354040283529160200191610924565b820191906000526020600020905b81548152906001019060200180831161090757829003601f168201915b505050505090806002018054600181600116156101000203166002900480601f0160208091040260200160405190810160405280929190818152602001828054600181600116156101000203166002900480156109c25780601f10610997576101008083540402835291602001916109c2565b820191906000526020600020905b8154815290600101906020018083116109a557829003601f168201915b5050505050908060030160009054906101000a900473ffffffffffffffffffffffffffffffffffffffff16908060040154905085565b828054600181600116156101000203166002900490600052602060002090601f016020900481019282601f10610a3957805160ff1916838001178555610a67565b82800160010185558215610a67579182015b82811115610a66578251825591602001919060010190610a4b565b5b509050610a749190610af8565b5090565b828054600181600116156101000203166002900490600052602060002090601f016020900481019282601f10610ab957805160ff1916838001178555610ae7565b82800160010185558215610ae7579182015b82811115610ae6578251825591602001919060010190610acb565b5b509050610af49190610af8565b5090565b610b1a91905b80821115610b16576000816000905550600101610afe565b5090565b9056fea165627a7a723058203059cbec71a05fafcb7eec54acc308c4c1c76375611c5f6a18004a339dc27ee40029",
  "source": "pragma solidity >=0.4.21 <0.6.0;\r\n\r\ncontract WikiBea {\r\n\r\n  struct artigo {\r\n  \tuint id;\r\n  \tstring titulo;\r\n  \tstring corpo;\r\n  \taddress autor;\r\n  \tuint versao;\r\n  }\r\n\r\n  address public owner;\r\n\r\n  constructor() public {\r\n    owner = msg.sender;\r\n    adicionaArtigo(\"titulo teste\", \"corpo teste\");\r\n  } \r\n\r\n  // mapeando o artigo\r\n  mapping(uint => artigo) public artigos;\r\n\r\n  uint public artigosCount;\r\n\r\n  // inicialização\r\n  // function WikiBea () public {}\r\n\r\n  function adicionaArtigo (string memory _titulo, string memory _corpo) public {\r\n  \tartigosCount ++;\r\n  \tartigos[artigosCount] = artigo(artigosCount, _titulo, _corpo, msg.sender, 0);\r\n  }\r\n\r\n  function alterarArtigo (uint _id, string memory _titulo, string memory _corpo) public {\r\n  \t// verifica se a pessoa que esta tentando alterar eh o autor\r\n  \trequire(artigos[_id].autor == msg.sender);\r\n\r\n  \t// altera artigo\r\n  \tartigos[_id].titulo = _titulo;\r\n  \tartigos[_id].corpo = _corpo;\r\n\r\n  \t// versiona\r\n  \tartigos[_id].versao ++;\r\n  }\r\n\r\n  function getArtigo(uint id) public view returns (uint, string memory){\r\n    return (artigos[id].id, artigos[id].titulo);\r\n  }\r\n  \r\n\r\n}\r\n",
  "sourcePath": "C:/Users/italo.reis/Documents/wikibea/tcc-bea/contracts/WikipiBea.sol",
  "compiler": {
    "name": "solc",
    "version": "0.5.8+commit.23d335f2.Emscripten.clang"
  },
  "schemaVersion": "3.0.10",
  "updatedAt": "2019-06-07T00:16:09.179Z",
  "devdoc": {
    "methods": {}
  },
  "userdoc": {
    "methods": {}
  }
}