{
  "contractName": "WikiBea",
  "abi": [
    {
      "constant": true,
      "inputs": [],
      "name": "artigosCount",
      "outputs": [
        {
          "name": "",
          "type": "uint256"
        }
      ],
      "payable": false,
      "stateMutability": "view",
      "type": "function"
    },
    {
      "constant": true,
      "inputs": [],
      "name": "owner",
      "outputs": [
        {
          "name": "",
          "type": "address"
        }
      ],
      "payable": false,
      "stateMutability": "view",
      "type": "function"
    },
    {
      "constant": true,
      "inputs": [
        {
          "name": "",
          "type": "uint256"
        }
      ],
      "name": "artigos",
      "outputs": [
        {
          "name": "id",
          "type": "uint256"
        },
        {
          "name": "titulo",
          "type": "string"
        },
        {
          "name": "corpo",
          "type": "string"
        },
        {
          "name": "autor",
          "type": "address"
        },
        {
          "name": "versao",
          "type": "uint256"
        }
      ],
      "payable": false,
      "stateMutability": "view",
      "type": "function"
    },
    {
      "inputs": [],
      "payable": false,
      "stateMutability": "nonpayable",
      "type": "constructor"
    },
    {
      "constant": false,
      "inputs": [
        {
          "name": "_titulo",
          "type": "string"
        },
        {
          "name": "_corpo",
          "type": "string"
        }
      ],
      "name": "adicionaArtigo",
      "outputs": [],
      "payable": false,
      "stateMutability": "nonpayable",
      "type": "function"
    },
    {
      "constant": false,
      "inputs": [
        {
          "name": "_id",
          "type": "uint256"
        },
        {
          "name": "_titulo",
          "type": "string"
        },
        {
          "name": "_corpo",
          "type": "string"
        }
      ],
      "name": "alterarArtigo",
      "outputs": [],
      "payable": false,
      "stateMutability": "nonpayable",
      "type": "function"
    }
  ],
  "bytecode": "0x608060405234801561001057600080fd5b50336000806101000a81548173ffffffffffffffffffffffffffffffffffffffff021916908373ffffffffffffffffffffffffffffffffffffffff1602179055506100cb6040518060400160405280600c81526020017f746974756c6f20746573746500000000000000000000000000000000000000008152506040518060400160405280600b81526020017f636f72706f2074657374650000000000000000000000000000000000000000008152506100d060201b60201c565b610278565b6002600081548092919060010191905055506040518060a0016040528060025481526020018381526020018281526020013373ffffffffffffffffffffffffffffffffffffffff168152602001600081525060016000600254815260200190815260200160002060008201518160000155602082015181600101908051906020019061015d9291906101d3565b50604082015181600201908051906020019061017a9291906101d3565b5060608201518160030160006101000a81548173ffffffffffffffffffffffffffffffffffffffff021916908373ffffffffffffffffffffffffffffffffffffffff160217905550608082015181600401559050505050565b828054600181600116156101000203166002900490600052602060002090601f016020900481019282601f1061021457805160ff1916838001178555610242565b82800160010185558215610242579182015b82811115610241578251825591602001919060010190610226565b5b50905061024f9190610253565b5090565b61027591905b80821115610271576000816000905550600101610259565b5090565b90565b6109ba806102876000396000f3fe608060405234801561001057600080fd5b50600436106100575760003560e01c806340c728b31461005c5780635e4c546f1461007a5780637c13f6f4146101d65780638da5cb5b14610328578063f038f9fa14610372575b600080fd5b6100646104c6565b6040518082815260200191505060405180910390f35b6101d46004803603606081101561009057600080fd5b8101908080359060200190929190803590602001906401000000008111156100b757600080fd5b8201836020820111156100c957600080fd5b803590602001918460018302840111640100000000831117156100eb57600080fd5b91908080601f016020809104026020016040519081016040528093929190818152602001838380828437600081840152601f19601f8201169050808301925050505050505091929192908035906020019064010000000081111561014e57600080fd5b82018360208201111561016057600080fd5b8035906020019184600183028401116401000000008311171561018257600080fd5b91908080601f016020809104026020016040519081016040528093929190818152602001838380828437600081840152601f19601f8201169050808301925050505050505091929192905050506104cc565b005b610326600480360360408110156101ec57600080fd5b810190808035906020019064010000000081111561020957600080fd5b82018360208201111561021b57600080fd5b8035906020019184600183028401116401000000008311171561023d57600080fd5b91908080601f016020809104026020016040519081016040528093929190818152602001838380828437600081840152601f19601f820116905080830192505050505050509192919290803590602001906401000000008111156102a057600080fd5b8201836020820111156102b257600080fd5b803590602001918460018302840111640100000000831117156102d457600080fd5b91908080601f016020809104026020016040519081016040528093929190818152602001838380828437600081840152601f19601f8201169050808301925050505050505091929192905050506105bb565b005b6103306106be565b604051808273ffffffffffffffffffffffffffffffffffffffff1673ffffffffffffffffffffffffffffffffffffffff16815260200191505060405180910390f35b61039e6004803603602081101561038857600080fd5b81019080803590602001909291905050506106e3565b6040518086815260200180602001806020018573ffffffffffffffffffffffffffffffffffffffff1673ffffffffffffffffffffffffffffffffffffffff168152602001848152602001838103835287818151815260200191508051906020019080838360005b83811015610420578082015181840152602081019050610405565b50505050905090810190601f16801561044d5780820380516001836020036101000a031916815260200191505b50838103825286818151815260200191508051906020019080838360005b8381101561048657808201518184015260208101905061046b565b50505050905090810190601f1680156104b35780820380516001836020036101000a031916815260200191505b5097505050505050505060405180910390f35b60025481565b3373ffffffffffffffffffffffffffffffffffffffff166001600085815260200190815260200160002060030160009054906101000a900473ffffffffffffffffffffffffffffffffffffffff1673ffffffffffffffffffffffffffffffffffffffff161461053a57600080fd5b81600160008581526020019081526020016000206001019080519060200190610564929190610869565b508060016000858152602001908152602001600020600201908051906020019061058f929190610869565b506001600084815260200190815260200160002060040160008154809291906001019190505550505050565b6002600081548092919060010191905055506040518060a0016040528060025481526020018381526020018281526020013373ffffffffffffffffffffffffffffffffffffffff16815260200160008152506001600060025481526020019081526020016000206000820151816000015560208201518160010190805190602001906106489291906108e9565b5060408201518160020190805190602001906106659291906108e9565b5060608201518160030160006101000a81548173ffffffffffffffffffffffffffffffffffffffff021916908373ffffffffffffffffffffffffffffffffffffffff160217905550608082015181600401559050505050565b6000809054906101000a900473ffffffffffffffffffffffffffffffffffffffff1681565b6001602052806000526040600020600091509050806000015490806001018054600181600116156101000203166002900480601f0160208091040260200160405190810160405280929190818152602001828054600181600116156101000203166002900480156107955780601f1061076a57610100808354040283529160200191610795565b820191906000526020600020905b81548152906001019060200180831161077857829003601f168201915b505050505090806002018054600181600116156101000203166002900480601f0160208091040260200160405190810160405280929190818152602001828054600181600116156101000203166002900480156108335780601f1061080857610100808354040283529160200191610833565b820191906000526020600020905b81548152906001019060200180831161081657829003601f168201915b5050505050908060030160009054906101000a900473ffffffffffffffffffffffffffffffffffffffff16908060040154905085565b828054600181600116156101000203166002900490600052602060002090601f016020900481019282601f106108aa57805160ff19168380011785556108d8565b828001600101855582156108d8579182015b828111156108d75782518255916020019190600101906108bc565b5b5090506108e59190610969565b5090565b828054600181600116156101000203166002900490600052602060002090601f016020900481019282601f1061092a57805160ff1916838001178555610958565b82800160010185558215610958579182015b8281111561095757825182559160200191906001019061093c565b5b5090506109659190610969565b5090565b61098b91905b8082111561098757600081600090555060010161096f565b5090565b9056fea165627a7a7230582003b7f9b46cee767dae414ed9cfe56083066b4d93d01be70b1c77d58e84838f120029",
  "source": "pragma solidity >=0.4.21 <0.6.0;\r\n\r\ncontract WikiBea {\r\n\r\n  struct artigo {\r\n  \tuint id;\r\n  \tstring titulo;\r\n  \tstring corpo;\r\n  \taddress autor;\r\n  \tuint versao;\r\n  }\r\n\r\n  address public owner;\r\n\r\n  constructor() public {\r\n    owner = msg.sender;\r\n    adicionaArtigo(\"titulo teste\", \"corpo teste\");\r\n  } \r\n\r\n  // mapeando o artigo\r\n  mapping(uint => artigo) public artigos;\r\n\r\n  uint public artigosCount;\r\n\r\n  // inicialização\r\n  // function WikiBea () public {}\r\n\r\n  function adicionaArtigo (string memory _titulo, string memory _corpo) public {\r\n  \tartigosCount ++;\r\n  \tartigos[artigosCount] = artigo(artigosCount, _titulo, _corpo, msg.sender, 0);\r\n  }\r\n\r\n  function alterarArtigo (uint _id, string memory _titulo, string memory _corpo) public {\r\n  \t// verifica se a pessoa que esta tentando alterar eh o autor\r\n  \trequire(artigos[_id].autor == msg.sender);\r\n\r\n  \t// altera artigo\r\n  \tartigos[_id].titulo = _titulo;\r\n  \tartigos[_id].corpo = _corpo;\r\n\r\n  \t// versiona\r\n  \tartigos[_id].versao ++;\r\n  }\r\n  \r\n\r\n}\r\n",
  "sourcePath": "C:/Users/italo.reis/Documents/wikibea/tcc-bea/contracts/WikipiBea.sol",
  "compiler": {
    "name": "solc",
    "version": "0.5.8+commit.23d335f2.Emscripten.clang"
  },
  "schemaVersion": "3.0.10",
  "updatedAt": "2019-06-05T22:40:26.265Z",
  "devdoc": {
    "methods": {}
  },
  "userdoc": {
    "methods": {}
  }
}